{
  "_format": "hh-sol-artifact-1",
  "contractName": "shipAgent",
  "sourceName": "contracts/shipAgent.sol",
  "abi": [
    {
      "inputs": [],
      "stateMutability": "nonpayable",
      "type": "constructor"
    },
    {
      "inputs": [],
      "name": "agencyName",
      "outputs": [
        {
          "internalType": "string",
          "name": "",
          "type": "string"
        }
      ],
      "stateMutability": "view",
      "type": "function"
    },
    {
      "inputs": [],
      "name": "agencyOwner",
      "outputs": [
        {
          "internalType": "address",
          "name": "",
          "type": "address"
        }
      ],
      "stateMutability": "view",
      "type": "function"
    },
    {
      "inputs": [],
      "name": "depositMoney",
      "outputs": [],
      "stateMutability": "payable",
      "type": "function"
    },
    {
      "inputs": [],
      "name": "getAgencyBalance",
      "outputs": [
        {
          "internalType": "uint256",
          "name": "",
          "type": "uint256"
        }
      ],
      "stateMutability": "view",
      "type": "function"
    },
    {
      "inputs": [],
      "name": "getShipAccountBalance",
      "outputs": [
        {
          "internalType": "uint256",
          "name": "",
          "type": "uint256"
        }
      ],
      "stateMutability": "view",
      "type": "function"
    },
    {
      "inputs": [
        {
          "internalType": "uint256",
          "name": "_dues",
          "type": "uint256"
        }
      ],
      "name": "payDues",
      "outputs": [],
      "stateMutability": "nonpayable",
      "type": "function"
    },
    {
      "inputs": [
        {
          "internalType": "string",
          "name": "_name",
          "type": "string"
        }
      ],
      "name": "setAgencyName",
      "outputs": [],
      "stateMutability": "nonpayable",
      "type": "function"
    },
    {
      "inputs": [
        {
          "internalType": "string",
          "name": "_shipIMONumber",
          "type": "string"
        }
      ],
      "name": "setShipIMONumber",
      "outputs": [],
      "stateMutability": "nonpayable",
      "type": "function"
    },
    {
      "inputs": [
        {
          "internalType": "string",
          "name": "_shipNetTonnage",
          "type": "string"
        }
      ],
      "name": "setShipNetTonnage",
      "outputs": [],
      "stateMutability": "nonpayable",
      "type": "function"
    },
    {
      "inputs": [
        {
          "internalType": "address",
          "name": "",
          "type": "address"
        }
      ],
      "name": "shipAccountBalance",
      "outputs": [
        {
          "internalType": "uint256",
          "name": "",
          "type": "uint256"
        }
      ],
      "stateMutability": "view",
      "type": "function"
    },
    {
      "inputs": [],
      "name": "shipIMONumber",
      "outputs": [
        {
          "internalType": "string",
          "name": "",
          "type": "string"
        }
      ],
      "stateMutability": "view",
      "type": "function"
    },
    {
      "inputs": [],
      "name": "shipNetTonnage",
      "outputs": [
        {
          "internalType": "string",
          "name": "",
          "type": "string"
        }
      ],
      "stateMutability": "view",
      "type": "function"
    },
    {
      "inputs": [
        {
          "internalType": "address payable",
          "name": "_to",
          "type": "address"
        },
        {
          "internalType": "uint256",
          "name": "_total",
          "type": "uint256"
        }
      ],
      "name": "withdrawMoney",
      "outputs": [],
      "stateMutability": "nonpayable",
      "type": "function"
    }
  ],
  "bytecode": "0x608060405234801561001057600080fd5b50336000806101000a81548173ffffffffffffffffffffffffffffffffffffffff021916908373ffffffffffffffffffffffffffffffffffffffff160217905550611057806100606000396000f3fe6080604052600436106100c25760003560e01c806352cb90b21161007f578063dee9914511610059578063dee9914514610223578063eb76f9181461024c578063f1da3e2c14610277578063f274c897146102b4576100c2565b806352cb90b2146101a45780637aa41ffd146101cf578063d6691733146101f8576100c2565b806304d7232c146100c75780630fab14e8146100f0578063146a5d401461011b57806316c05aa2146101445780633166f7951461014e5780633a93cdb314610179575b600080fd5b3480156100d357600080fd5b506100ee60048036038101906100e99190610a44565b6102dd565b005b3480156100fc57600080fd5b506101056102f7565b6040516101129190610c9d565b60405180910390f35b34801561012757600080fd5b50610142600480360381019061013d9190610a44565b61031b565b005b61014c610335565b005b34801561015a57600080fd5b506101636103d1565b6040516101709190610d5a565b60405180910390f35b34801561018557600080fd5b5061018e610418565b60405161019b9190610cb8565b60405180910390f35b3480156101b057600080fd5b506101b96104a6565b6040516101c69190610d5a565b60405180910390f35b3480156101db57600080fd5b506101f660048036038101906101f19190610a85565b61053d565b005b34801561020457600080fd5b5061020d610596565b60405161021a9190610cb8565b60405180910390f35b34801561022f57600080fd5b5061024a60048036038101906102459190610a44565b610624565b005b34801561025857600080fd5b506102616106cc565b60405161026e9190610cb8565b60405180910390f35b34801561028357600080fd5b5061029e600480360381019061029991906109df565b61075a565b6040516102ab9190610d5a565b60405180910390f35b3480156102c057600080fd5b506102db60048036038101906102d69190610a08565b610772565b005b80600290805190602001906102f3929190610895565b5050565b60008054906101000a900473ffffffffffffffffffffffffffffffffffffffff1681565b8060039080519060200190610331929190610895565b5050565b6000341415610379576040517f08c379a000000000000000000000000000000000000000000000000000000000815260040161037090610cfa565b60405180910390fd5b34600460003373ffffffffffffffffffffffffffffffffffffffff1673ffffffffffffffffffffffffffffffffffffffff16815260200190815260200160002060008282546103c89190610df2565b92505081905550565b6000600460003373ffffffffffffffffffffffffffffffffffffffff1673ffffffffffffffffffffffffffffffffffffffff16815260200190815260200160002054905090565b6003805461042590610f0c565b80601f016020809104026020016040519081016040528092919081815260200182805461045190610f0c565b801561049e5780601f106104735761010080835404028352916020019161049e565b820191906000526020600020905b81548152906001019060200180831161048157829003601f168201915b505050505081565b60008060009054906101000a900473ffffffffffffffffffffffffffffffffffffffff1673ffffffffffffffffffffffffffffffffffffffff163373ffffffffffffffffffffffffffffffffffffffff1614610537576040517f08c379a000000000000000000000000000000000000000000000000000000000815260040161052e90610cda565b60405180910390fd5b47905090565b80600460003373ffffffffffffffffffffffffffffffffffffffff1673ffffffffffffffffffffffffffffffffffffffff168152602001908152602001600020600082825461058c9190610e48565b9250508190555050565b600280546105a390610f0c565b80601f01602080910402602001604051908101604052809291908181526020018280546105cf90610f0c565b801561061c5780601f106105f15761010080835404028352916020019161061c565b820191906000526020600020905b8154815290600101906020018083116105ff57829003601f168201915b505050505081565b60008054906101000a900473ffffffffffffffffffffffffffffffffffffffff1673ffffffffffffffffffffffffffffffffffffffff163373ffffffffffffffffffffffffffffffffffffffff16146106b2576040517f08c379a00000000000000000000000000000000000000000000000000000000081526004016106a990610d3a565b60405180910390fd5b80600190805190602001906106c8929190610895565b5050565b600180546106d990610f0c565b80601f016020809104026020016040519081016040528092919081815260200182805461070590610f0c565b80156107525780601f1061072757610100808354040283529160200191610752565b820191906000526020600020905b81548152906001019060200180831161073557829003601f168201915b505050505081565b60046020528060005260406000206000915090505481565b600460003373ffffffffffffffffffffffffffffffffffffffff1673ffffffffffffffffffffffffffffffffffffffff168152602001908152602001600020548111156107f4576040517f08c379a00000000000000000000000000000000000000000000000000000000081526004016107eb90610d1a565b60405180910390fd5b80600460003373ffffffffffffffffffffffffffffffffffffffff1673ffffffffffffffffffffffffffffffffffffffff16815260200190815260200160002060008282546108439190610e48565b925050819055508173ffffffffffffffffffffffffffffffffffffffff166108fc829081150290604051600060405180830381858888f19350505050158015610890573d6000803e3d6000fd5b505050565b8280546108a190610f0c565b90600052602060002090601f0160209004810192826108c3576000855561090a565b82601f106108dc57805160ff191683800117855561090a565b8280016001018555821561090a579182015b828111156109095782518255916020019190600101906108ee565b5b509050610917919061091b565b5090565b5b8082111561093457600081600090555060010161091c565b5090565b600061094b61094684610da6565b610d75565b90508281526020810184848401111561096357600080fd5b61096e848285610eca565b509392505050565b60008135905061098581610fdc565b92915050565b60008135905061099a81610ff3565b92915050565b600082601f8301126109b157600080fd5b81356109c1848260208601610938565b91505092915050565b6000813590506109d98161100a565b92915050565b6000602082840312156109f157600080fd5b60006109ff84828501610976565b91505092915050565b60008060408385031215610a1b57600080fd5b6000610a298582860161098b565b9250506020610a3a858286016109ca565b9150509250929050565b600060208284031215610a5657600080fd5b600082013567ffffffffffffffff811115610a7057600080fd5b610a7c848285016109a0565b91505092915050565b600060208284031215610a9757600080fd5b6000610aa5848285016109ca565b91505092915050565b610ab781610e7c565b82525050565b6000610ac882610dd6565b610ad28185610de1565b9350610ae2818560208601610ed9565b610aeb81610fcb565b840191505092915050565b6000610b03603883610de1565b91507f596f75206d75737420626520746865206f776e6572206f66207468652061676560008301527f6e637920746f2073656520616c6c2062616c616e6365732e00000000000000006020830152604082019050919050565b6000610b69602983610de1565b91507f596f75206e65656420746f206465706f73697420736f6d6520616d6f756e742060008301527f6f66206d6f6e65792100000000000000000000000000000000000000000000006020830152604082019050919050565b6000610bcf602883610de1565b91507f596f75206861766520696e73756666696369656e742066756e647320746f207760008301527f697468647261772e0000000000000000000000000000000000000000000000006020830152604082019050919050565b6000610c35603483610de1565b91507f596f75206d75737420626520746865206f776e657220746f207365742074686560008301527f206e616d65206f6620746865206167656e63792e0000000000000000000000006020830152604082019050919050565b610c9781610ec0565b82525050565b6000602082019050610cb26000830184610aae565b92915050565b60006020820190508181036000830152610cd28184610abd565b905092915050565b60006020820190508181036000830152610cf381610af6565b9050919050565b60006020820190508181036000830152610d1381610b5c565b9050919050565b60006020820190508181036000830152610d3381610bc2565b9050919050565b60006020820190508181036000830152610d5381610c28565b9050919050565b6000602082019050610d6f6000830184610c8e565b92915050565b6000604051905081810181811067ffffffffffffffff82111715610d9c57610d9b610f9c565b5b8060405250919050565b600067ffffffffffffffff821115610dc157610dc0610f9c565b5b601f19601f8301169050602081019050919050565b600081519050919050565b600082825260208201905092915050565b6000610dfd82610ec0565b9150610e0883610ec0565b9250827fffffffffffffffffffffffffffffffffffffffffffffffffffffffffffffffff03821115610e3d57610e3c610f3e565b5b828201905092915050565b6000610e5382610ec0565b9150610e5e83610ec0565b925082821015610e7157610e70610f3e565b5b828203905092915050565b6000610e8782610ea0565b9050919050565b6000610e9982610ea0565b9050919050565b600073ffffffffffffffffffffffffffffffffffffffff82169050919050565b6000819050919050565b82818337600083830152505050565b60005b83811015610ef7578082015181840152602081019050610edc565b83811115610f06576000848401525b50505050565b60006002820490506001821680610f2457607f821691505b60208210811415610f3857610f37610f6d565b5b50919050565b7f4e487b7100000000000000000000000000000000000000000000000000000000600052601160045260246000fd5b7f4e487b7100000000000000000000000000000000000000000000000000000000600052602260045260246000fd5b7f4e487b7100000000000000000000000000000000000000000000000000000000600052604160045260246000fd5b6000601f19601f8301169050919050565b610fe581610e7c565b8114610ff057600080fd5b50565b610ffc81610e8e565b811461100757600080fd5b50565b61101381610ec0565b811461101e57600080fd5b5056fea2646970667358221220a46b3c56a097b156806ca0d4541ae90b9bca59da7ecda8b35a3e91fdd3c9b6c964736f6c63430008000033",
  "linkReferences": {},
  "deployedLinkReferences": {}
}